:100000001EC538C537C536C535C54DC733C532C51C
:1000100031C530C52FC52EC52DC52CC52BC53FC636
:100020004AC64FC654C659C65EC663C668C60000F7
:1000300000003700AE2000B0C8001040813FA1A6EC
:10004000A83FA4D300D5F0D922DA12DB208D14AF5B
:100050000000000000000202020202020404040484
:100060000404040404040404040404040404040252
:100070000000020404020000020404040404040456
:10008000FF00000000FF0202020202020404040456
:100090000404FF04040404FF00FF0000FF0002FF4B
:1000A0000202FF0204FF0404FF0404FF0404FF042F
:1000B000FFFF0202FFFF000202020200020402022E
:1000C000040202FFFFFFFF0204040404040402020E
:1000D0000202020200000000000000000000000018
:1000E000FF00000000FF02FFFFFFFF0204FFFFFF11
:1000F000FF04FF04040404FF04FF04FF04FFFF04E3
:10010000FF04FF0404FF04FF04FFFF04FF04FF04D7
:10011000FFFF0000FFFF02020404020202020404C7
:100120000202FFFF0000FFFF0000040402020000C3
:10013000040402020000040402020000040402029B
:10014000FFFFFDFFFFFFFFFFFFFFFFFFFFFFFFFFC1
:10015000FFFFFFFFFDFFFFFFFFFFFFFFFFFFFFFFB1
:10016000FF3F5F1FCF2FC7BFE77FEFFFBFFFFFFF3F
:10017000FFFFFFFFFFFFFFFFFFFFFFFFFBFFFFFF93
:10018000FFFFFFFFFFFFFFFFFFFFFFF7FFFFFFFF87
:10019000FFFFFFFFFFFFFFFFFFFFFF7FFFFFFFFFEF
:1001A000FFFFFFFFFFFFFFFFFF7FFFFFFFFFFFFFDF
:1001B000FFFFFFFFFFFFFFFFFFFFF7FFFFFFFFFF57
:1001C000FFFFFFFFFFFFFFFFFFFFFFFFFFFFFEFF40
:1001D000FFFFFFFFFFFFFFFFFFFDFFFFFFFFFFFF31
:1001E000C014E9F6BDEFFDFFFDFFBFFFD77FDFBF06
:1001F000F6FFFFFFFFFFFFFFFFFFFFFFFFFFFFFF18
:10020000FF7FFFFFFFFFFFFFFFFFFFFFFFFFFFFF7E
:10021000FFFFFFFFFFFFFFFFFFFFFFFFFFFFFFFFEE
:10022000FFFFFFFFBFFFFFFFFFFFFFFFFFFFFFFF1E
:10023000FFDFFFFFFFFFFFFFFFFFBFFFFFFFFFFF2E
:10024000FFFFFFFFFFFFFFFFFFFFFFFFEFFFFFFFCE
:10025000FFFFFFFFFFFFFFFFFFFFFFFFFFFFFFFFAE
:10026000FFFFFEFFFDF7FFF7FFF7FFFDFFFFFDFFBD
:10027000FFFFFFFFFFFFFFFFFFFFFFFFFFFFFFFF8E
:10028000FFFFFFFFFFFFFFFFFFFFBF7F1FBF0F4706
:100290008F23479343B54BA3DBA5DBB3E75BF7AFF6
:1002A000F76FFFDFFF5FFFFFFFFFFFFFFFFFFFFFB6
:1002B000BFFFFFFFFFFFFFFFFFFFFFFFFFFFFFFF8E
:1002C000FFFFFFFFFFFFFFFFFFFFFFFFFFFFFFFF3E
:1002D000FFFFFFFFFFDFFFFFFFFFFFFFFFFFFFFF4E
:1002E000FFFFEFFFFFFFFFFFFFFFFFFFFFFFFFFF2E
:1002F000FFFFFFFFFFFFFFFFBFFFFFFFFFFFFFFF4E
:10030000FFFFFFFF9F0F4315025004A218E20CF2FB
:100310000CF3ACDAF5BAED7AEFDABFF6FFEFFDF7E2
:100320007FFFEDFF7FFBBFFEDF7DF7DFFFBFFFFF3E
:10033000FFBFFFFFFFFFFFFFFFFFFFFFFFFFFFFF0D
:10034000FFFEFFFFFFFFFFFFFFFFFFFFFFFFFFFFBE
:10035000FFFFFFBFFFFFFFFFAFFFFFFFFFBFFFFF7D
:10036000FFFFFFFFFFFFFFFFFFFFFFFFFFFFFFFF9D
:10037000FFFFFFFFFFFFFFFFFFFFFFFFFFFFFFFF8D
:10038000FFFF11240852005528C31CD1B64DFA575F
:10039000FDD76EFBEE77DFF5DFFBFDBFFAFFFDFF5C
:1003A000FD7FFEBFFFDFFFFFFFBFFFFFFFFEABFFD5
:1003B000FFFFFFFFFFFFFFFFFFFDFFFFFFFFFFFF4F
:1003C000FFFFFFFFFFFFFFFFFFFFFFFFFFFFFEFF3E
:1003D000FFF7FFF7FFB6D5F780F7D5B6FFF7FFF7C2
:1003E000FFFFFFFFFFFFFFFFFFFFFFFFFFFFFFFF1D
:1003F000FFFFFFFFFFFFFFFFFFFFFFFFFFFFFFFF0D
:10040000FFF648A11449A659A5BA6BDE75FFDB7F3C
:10041000EDFFF7FFFD7FFFFDFFFEFFFFFFFFDFFBAF
:10042000FFBFF7DFFBBF6DDFFFB77FFF57BED5FF15
:10043000FFFFFFFFFF7FFFFFFFFFFFFFFFFFBFFF8C
:10044000FFFFFFFFFFFFFFFDFFFFFFFFFFFFFFFFBE
:10045000FFFFFFFEFFFFFFFFFAEFFFFFFFFEFFFFC3
:10046000FFFFFFFFFFFFFFFFFFFFFFFFFFFFFFFF9C
:10047000FFFDFFFFFFFFFFFFFFFFFFFFFFFFFFFF8E
:10048000FFFFFFFEE9D46B9679D7BDD7FDEFBDF72F
:10049000DFFFEEFFFFFFFFEFFFFFFFFBEEFF77FD4C
:1004A000FFDFF6EF7DEBFF56BDCBF5F6FDFFFFFF5F
:1004B000FFFFFFFFFFFFFFFFFFFFFFFFFFFFFFFF4C
:1004C000FFFFFFFFFFFFEFFFFFFFFFFFFFFFFFFF4C
:1004D000FFFFFFFFFFFFFBFFFFFFFFFFFFFFFFFF30
:1004E000FFFFFFFFFFFFFFFFFFFFFFFFFFFFFFFF1C
:1004F000FF7FFFFFFFFFFFFFFFFFFFFFEFFFFFFF9C
:10050000FFFFFFFFFFFFFFFFFDFEFFFAF7FDEFF725
:10051000DEEFFFBFEEFFDFBFFFDFFEBFFFAFFFDF9E
:10052000FBFFF6FFFBFFFCFFFFFFFFFFFFFFFEFFF0
:10053000FFFFFFFFFFFBFFFFFFFFFFFFFFFFFFFFCF
:1005400080C080000080C080000080C080000070FB
:10055000787878787E7F7E787878787054D1B4789F
:100560003CF034F88078EAE07400000058BC163F94
:100570003F16BC58000000000000985CB65F5FB6F4
:100580005C980000000070187DB6BC3C3CBCB67D99
:10059000187000001EB87D363C3C3C3C367DB81ED1
:1005A00000009C9E5E76375F5F37765E9E9C000003
:1005B0001C5EFEB6375F5F37B6FE5E1C0000406013
:1005C000F0507858587850F0604000004060D0708B
:1005D0005878785870D0604000000000000024185F
:1005E00018240000000000000000810024181824D6
:1005F00000810000000000248118245A5A24188128
:10060000240000420024814A3CA4253C4A81240065
:1006100042F00FFFFFFFFFFFFFFFFFFFFFFFFFFFA6
:10062000FFFFFFFFFFFFFFFFFFFFFFFF7F3F1F07F2
:1006300001000000000000000000000103070000AE
:100640000000000000000000000000010307FF019F
:100650000000000000000000003FFFFF0F07010145
:100660000000000000000000000003070700000079
:1006700000000000000000000000000707273F3FC7
:10068000FFFFFFFFFFFFFFFFFFFFFFFFFFFFFFFF7A
:10069000FFFFFFFFFFFFFFFFFFFFFFFFFFFFFFFF6A
:1006A000FFFFFFFFFFFFFFFFFFFFC30338FEFFFF5A
:1006B000FFFF1F1F1FFFFEFCF8E00000000FFFFF01
:1006C000FFFFFF1F1F1FFFFFFCFCF880000003005F
:1006D000FFFFFF3F3FFFFFFFC000FF3F000000F0B4
:1006E000F8FCFFFF0F0F0FFFFFFFFEFCF8000000FC
:1006F000C0FEFFFFFF3F1F1F1FDFDFDFDFC7E0FC84
:10070000FFFFFFFFFFFFFFFFFFFFFFFFFFFFFFFFF9
:10071000FFFFFFFFFFFFFFFFFFFFFFFFFFFFFFFFE9
:10072000FFFFFFFFFFFFFFFFFFFFFFFEE0839F3F95
:100730007FFFFEE0E0E0E1E1E18101000000007FF9
:10074000FFFFFFFC808083FFFFFFFF7F000000FFB3
:10075000FFFFFF00007FFFFFFF0001000000FCFF24
:10076000FFFFFF000000000303030303000080F805
:10077000FFFFFF7F7F7070700383FFFFFFFFFFFFAE
:10078000FFFFFFFFFFFFFFFFFFFFFFFFFFFFFFFF79
:10079000FFFFFFFFFFFFFFFFFFFFFFFFFFFFFFFF69
:1007A000FFFFFFFFFFFFFFFFFFFFFFFFFFFFFF8ECA
:1007B0000CE8E1E3E3C383039FFFFFFFF8000000C1
:1007C0003FFFFFFFFF078787E7E7E1F8FE00C0FF75
:1007D000FFFF3F38B838FFFFFFFE00F00000FFFFCB
:1007E000FFFF010000F8FCFCFC3C000000F0FFFFF4
:1007F000FF3F030002023A3E3EFFFFFFFFFFFFFF05
:10080000FFFFFFFFFFFFFFFFFFFFFFFFFFFFFFFFF8
:10081000FFFFFFFFFFFF9F1F1F11010101010101EA
:1008200003010101010101030F1101010101010196
:100830000000010103070707070707030000000086
:10084000000307070700000101010101010007077C
:100850000707000101000707070700000000010368
:10086000070707070707030100000000060707073F
:10087000070707070707010001010101030F1F0F09
:100880000F0703030101010101010101071F1F3FC0
:10089000FFFFFFF8F0861E3EFEFCF0C00000063CA5
:1008A0007CF8F0E08000000C7CFCFCFCC000000444
:1008B0003CFCFCF8F0800000001EFEFEFEFEFC008A
:1008C00000000000FCFCFCFCFEFEFEFEF000000050
:1008D0000000FCFCFCFCFC0C0C0C0CFCFCF8F0F02C
:1008E00000000000FCFCFCFC7C0C0C0C0C0C0C0C48
:1008F000000000E0FCFEFE7E0E0E0C0CFCFCFCFC7E
:100900007000000080E0F0F0781C0C0ECEFEFEFEC1
:100910007E1881FFFFFFFFFCF8E3C71F7FFCF8E0B4
:1009200080010F1F7FFFFEF8F8317FFFFFFFF8C047
:100930000000030F3FFFFCF0C000077FFFFFFFC078
:1009400000000000FFFFFFFF01031FFFFFFC00008E
:10095000000000FFFFFFFF000000F0FFFFFFFF07A8
:100960000000F0FFFFFFFF3F30303030300000006C
:10097000C0F8FEFFFF7F6160E0F09E1F0F0F0300D5
:1009800000107C7F7F7F67E1E0E1E00919F9F9F968
:10099000F8FEFFFFFFFFFFFFFFFFFFFEFCF0E38F0E
:1009A0001F7E7C704001071F7F7E70600123CF1F78
:1009B0003F7C600030E0831F3F7E7C7C7F7F7F7FB9
:1009C0000000F0007F7F7F7F0CECEC0F7F7F7F606B
:1009D0000000007F7F7F434040407F7F3F1F8000BB
:1009E00000787F7F7F7F4140404040000000607C76
:1009F0007F7F0F010000707E7F1F0FC1002078787D
:100A00007868606020381E9FC7E3F1FCFEFFFFFF9F
:100A1000FFFFFF0000000036000000000038000269
:100A20000202020202020202020102040810202055
:100A3000041008010200000400000000000011245E
:100A40001FBECFE5D2E0DEBFCDBF10E0A0E6B0E034
:100A5000ECEAFFE102C005900D92A63AB107D9F782
:100A600020E0A6EAB0E001C01D92A53BB207E1F785
:100A700064D29ACAC5CAC298C098C29AC09A089548
:100A800020E030E090E0AC01022E01C0440F0A9457
:100A9000EAF747FF02C0C09A01C0C098C29AC29844
:100AA0002F5F3F4F2830310571F7C09AC29AC29824
:100AB0000895C29AC09AC098C2980895CF93C82F3B
:100AC000F8DF88E7DDDF80E0DBDF8C2FD9DFCF9137
:100AD000D2CFEFDF88E7D4DF80E4D2CF823081F05D
:100AE00018F4813051F00895833019F0843009F002
:100AF00008958CB58F7D8CBD08958AB58F7702C01F
:100B00008AB58F7D8ABD08951F93CF93DF93E7E366
:100B1000FAE09491EDE2FAE0D491E3E2FAE0C491D4
:100B2000CC23D1F0182F992311F0892FD7DFEC2F88
:100B3000F0E0EE0FFF1FE75EF54FA591B4918FB780
:100B4000F894111105C09C91ED2FE095E92302C0A6
:100B5000EC91ED2BEC938FBFDF91CF911F91089516
:100B6000CF93DF93E4E3FAE08491EAE2FAE0D491F0
:100B7000E0E2FAE0C491CC2389F08111AFDFEC2FE1
:100B8000F0E0EE0FFF1FED5EF54FA591B491EC91F3
:100B9000ED2381E090E021F480E002C080E090E06D
:100BA000DF91CF910895CF93DF9390E0FC01E75D53
:100BB000F54F2491FC01E15EF54F8491882361F1AA
:100BC00090E0880F991FFC01E25DFF4FC591D49121
:100BD000FC01E75EF54FA591B491611109C09FB783
:100BE000F8948881209582238883EC912E230BC072
:100BF000623061F49FB7F8943881822F8095832307
:100C00008883EC912E2B2C939FBF06C08FB7F8944E
:100C1000E8812E2B28838FBFDF91CF910895683014
:100C200030F4E62FF0E0E356FF4F908101C090E0F2
:100C3000FA01E80FF11D82A1982381E009F480E018
:100C40000895663038F46230C8F4662349F06130A4
:100C500051F004C0663051F0673061F080E00895D3
:100C600081110CC009C0811109C002C0813031F46A
:100C70008CEF0895813011F480EF08958FE008958E
:100C8000CF92DF92EF92FF92C62ED12C98E0C91638
:100C9000D104D8F5F601E15FFF4F90E00994FA0125
:100CA000E80FF91F82A1805882A321112EC08FEF77
:100CB000FA0181A72AC0FA01E80FF91F82A1805426
:100CC000F3CFFA01E80FF91F82A18052EDCFFA01AC
:100CD000E80FF91F82A18051E7CFFA01E80FF91F51
:100CE00082A18850E1CFFA01E80FF91F82A1845058
:100CF000DBCFFA01E80FF91F82A18250D5CFFA01AC
:100D0000E80FF91F82A18150CFCFFF90EF90DF90C5
:100D1000CF900895EF92FF920F931F93CF93DF939D
:100D20001F92CDB7DEB7463009F064C07901162FA7
:100D3000282F0DEE060F083060F4A701602F80E029
:100D400029836DDF2981882321F0A701602F80E0AE
:100D50004EC005EE010F083060F4A701602F81E05E
:100D600029835DDF2981882321F0A701602F81E09D
:100D70003EC00AEC010F083060F4A701602F82E04A
:100D800029834DDF2981882321F0A701602F82E08C
:100D90002EC002EC010F083060F4A701602F83E041
:100DA00029833DDF2981882321F0A701602F83E07B
:100DB0001EC007EA010F083060F4A701602F84E02D
:100DC00029832DDF2981882321F0A701602F84E06A
:100DD0000EC01156183070F4A701612F85E02983E9
:100DE0001EDF2981882339F0A701612F85E048DFC4
:100DF00081E001C080E00F90DF91CF911F910F91B2
:100E0000FF90EF900895FC01AC0164E090E020E0D9
:100E100030E0DA01A20FB31F14968C918F3F19F0C6
:100E200086300CF49F5F2F5F3F4F2630310589F7E6
:100E300061504A5F5F4F6111EACF9093A800969589
:100E40009695969596AB08950F931F93CF93DF9346
:100E5000062F10E0CFEFD0E0C81BD1091017F1F03A
:100E600081E052DE80E0282F30E02C173D0734F47B
:100E700095E09A95F1F700008F5FF5CF80E044DEB2
:100E800080E0282F30E02C173D0734F495E09A9548
:100E9000F1F700008F5FF5CF1F5FE0CFDF91CF91BB
:100EA0001F910F9108951F920F920FB60F92112468
:100EB0002F933F938F939F93AF93BF938091B100F4
:100EC0009091B200A091B300B091B4003091B00005
:100ED00023E0230F2D3720F40196A11DB11D05C07D
:100EE00026E8230F0296A11DB11D2093B000809328
:100EF000B1009093B200A093B300B093B40080917E
:100F0000AC009091AD00A091AE00B091AF00019601
:100F1000A11DB11D8093AC009093AD00A093AE00D5
:100F2000B093AF00BF91AF919F918F913F912F915F
:100F30000F900FBE0F901F901895CF93DF93CDB7F2
:100F4000DEB7EF970FB6F894DEBF0FBECDBF789433
:100F50008AB582608ABD8AB581608ABD83B78260A6
:100F600083BF83B7816083BF89B7826089BF80B741
:100F7000826080BF80B7816080BF329A319A309A98
:100F8000379A8CB580648CBDB89ABA9A04E310E0A5
:100F9000BCE1FB2EF00EF801849190DD0F5F1F4F36
:100FA000F012F9CF60E081E0FEDD61E084E0FBDD7E
:100FB00060E089E0F8DD88E3E5E6F0E09E012F5F80
:100FC0003F4F7901D90101900D928A95E1F732E006
:100FD00039AF1CAE370183E08093AB001092AA00BA
:100FE00000E010E080EB800F69DD80E067DD80E1EC
:100FF00065DD6FDD5801B694BA2CAA24B794A79486
:10100000C12CD12CF601EA0DFB1DED5EF94F849148
:1010100037DD6FEFC61AD60A70E8C716D10491F70C
:101020000F5F1F4F08301105E9F69ADD892BC1F6D5
:101030006DE784E609DF6DE782E306DF8FEF99E66F
:10104000E8E181509040E040E1F700C000001092DC
:10105000A6001092A70088E18093A800A091AA00A2
:101060008A2F0A2E000C990B68E170E059D7A7016E
:10107000B4E08E199F0920E030E0BC01640F751FB9
:10108000F901E60FF71FE05BFF4F1491FA01E20F41
:10109000F31F14832F5F3F4F2630310589F7B1507E
:1010A0004A5F5F4FB111E7CF8FEF8BA38CA38DA366
:1010B0008EA38FA388A790E19B839C8398E8998354
:1010C0008AA71BA61CA61DA61EA61FA618AA83E0FB
:1010D00089AB1AAA8CE28BAB1CAAA43018F081E071
:1010E0008DAB01C01DAA1EAA88E08FAB81E088AF3E
:1010F0001A82C70188DE1092A9001AAE8091A8005A
:10110000811146C06FEF8EE69FDE9FEFE3EFF1E0C7
:101110009150E040F040E1F700C000006FEF82E83E
:1011200093DE2FEF33EF61E0215030406040E1F774
:1011300000C000006FEF84E687DE7FEF83EF91E071
:10114000715080409040E1F700C000006BE981E001
:101150007BDEEFEFF9EF20E0E150F0402040E1F7D7
:1011600000C000006FEF8CE36FDE6FEF8CE36CDE8E
:101170008091AA00893040F0FFEF23ED30E3F15079
:1011800020403040E1F761CF8F5F8093AA00F4CF19
:101190002DA989A990E00196820F911D079731F43E
:1011A0003AAD311103C081E08093A9008091A7007E
:1011B000482F50E09091AA0029E030E0291B310926
:1011C0002417350724F08F5F8093A70034C0109256
:1011D000A700ACD44B015C01A9D426E030E040E08C
:1011E00050E0B1D4162F653008F015E08C818031C5
:1011F00011F5C501B40123E030E040E050E0A3D494
:10120000262F30E0C90166E070E08AD68E0D9F1D62
:10121000FC01E10FF11D84818F3F69F09CA9995F6A
:10122000812F6EE074D6890F8B838DA9280F311D15
:10123000220F2F5F2C83809160006EE082D68C5C41
:1012400089A7C12CD12CCBAE80EB8C0D37DC80E094
:1012500035DC80E133DC3DDCB6017695762F662700
:10126000779567957EAF6DAF412C512C042D109171
:10127000A60090E84916510409F4CFC1111154C0D9
:101280001DEE100F183040F476E0C716D10421F49B
:10129000A701612F80E02FC015EE100F183040F429
:1012A00086E0C816D10421F4A701612F81E034C083
:1012B0001AEC100F183040F496E0C916D10421F44E
:1012C000A701612F82E017C012EC100F183040F414
:1012D000E6E0CE16D10421F4A701612F83E01CC003
:1012E00017EA100F183068F4F6E0CF16D10449F46D
:1012F000A701612F84E093DC8823B1F0612F80E0A7
:1013000010C01FE9100F183078F426E0C216D1047F
:1013100059F4A701612F85E082DC882329F0612F31
:1013200081E08FDC282F01C020E089A5800F87FD98
:101330008058EDADFEADE80FF11DE05CFE4F34903E
:1013400030948091AB0090E06BEF7FEFE9D5019690
:10135000840D951D181619064CF037E0C316D104FC
:1013600029F4F201E05CFA4F349101C030E0232906
:1013700080916000F201E81BF109ED30F105A0F465
:1013800067E0C616D10481F48091A900882341F05A
:101390008A8190E06CE070E0C3D58E0F9F1FFC0146
:1013A000E15BFA4FA49101C0A0E0232B698168386A
:1013B000E9F0C114D104D1F4062E000C770B4616C7
:1013C0005706A4F0C2010E97681779077CF0F20166
:1013D000E61BF70B8A8190E06EE070E0A1D58E0FDE
:1013E0009F1FFC01E354FA4F449101C040E0322EAC
:1013F0003A2AACA80A1598F02DA97BAD721778F09F
:10140000C2018A1991096EE070E0A7D56FA71BADE4
:10141000121B18AB663018F4153008F466C210E0E1
:10142000342A8BA48012DFC09AA5292F092E000C24
:10143000330BC216D30609F0D6C097FDD4C081E0A5
:101440002CA5211180E08CA7882311F091509AA738
:101450008A1408F4A0C0912CB12C95012C5A3F4F4E
:10146000281539050CF497C06AA5660F770B90E034
:101470000196680F791FAB01440F551F440F551F8C
:101480008DA990E09C01E3E0220F331FEA95E1F77C
:10149000421753070CF47FC0205E3F4F24173507D7
:1014A0000CF479C0880F991F681B790B6F3F9FEF71
:1014B00079078CF077FF02C06F5F7F4F7595679556
:1014C000072E000C880B990B96D420E030E040E00A
:1014D0005FE3FAD310C077FF02C06F5F7F4F75954F
:1014E0006795072E000C880B990B85D420E030E01F
:1014F00040E05FE3E8D34CD4262EC4018A199B094F
:101500006EE070E0833FEFEF9E0764F026D5072E74
:10151000000C880B990B6FD420E030E040E05FE3D3
:10152000D3D30BC01AD5072E000C880B990B63D4AC
:1015300020E030E040E05FE3C6D32AD467FD60E0FE
:1015400027FCACC266303CF5F3E0F21524F1822CA6
:10155000220C9908A62E660FBB08C40166E070E055
:10156000DFD4860D971DFC01EA0DFB1D84818630BA
:1015700090F46AE082E368DCC40166E070E0D0D4F5
:10158000860D971DFC01EA0DFB1D28E024833FEF2B
:101590003AA7C70138DC8AA581111FC02BA530E00E
:1015A0008981082E000C990B28173907B4F00E9684
:1015B0008217930794F091E061E0892F9FAF44DC9C
:1015C0009FAD9F5F9436C1F78091AB00833018F4D4
:1015D0008F5F8093AB0068E86983ECA5F0E0EF5E75
:1015E000F94F949101C090E0312A2C81822F869589
:1015F0007BAD871307C08B81801304C020FF04C01C
:1016000080EF03C080E001C08FE0E32DE92B8E2B3B
:1016100037DA8FEF481A580A29CE111105C0970101
:101620004AA56BA580E076DB26DAEFEFCE1ADE0A5C
:10163000F8E0CF16D10409F006CE2DA930E049A973
:1016400085E090E0841B9109281739075CF0113080
:1016500049F01BA21CA21DA21EA21FA218A681E077
:101660008093A60081E09A81911180E08A839E0197
:101670002B5F3F4F44E05FEFF90196E080818B30B4
:101680000CF050838081883014F08F5F80839150FC
:1016900031969111F3CF41502A5F3F4F4111ECCF6A
:1016A0004C814031F1F082EF840F823070F42B8155
:1016B00080916000281748F030E090E00E96821785
:1016C00093071CF081E08093A900469597016B81F8
:1016D00081E020DB882311F080E102C08C818F5FE4
:1016E0008C838981883829F082508D3E0CF488E8FB
:1016F00089838CA98A51833040F48DA9823029F4E2
:101700008EA9843011F48FE789836CAD262F30E0E9
:1017100040916000842F90E0BC016E5F7F4F6217A4
:10172000730754F4F901E81BF90BCF0163E070E093
:1017300014D4640F6093600040916000842F90E0A7
:10174000BC01625071092617370744F4821B930BC2
:101750006DEF7FEF02D4460F409360008091A900A7
:10176000813009F47EC08EA59FA9891718F48F5F78
:101770008EA756C083E089AB23E0822F90E066E01D
:1017800070E0CED340E050E0FA01E80FF91FE60D1B
:10179000F71D34813F3F39F44F5F5F4F46305105AD
:1017A00099F72150EACF29AB81E09DA5911180E006
:1017B0008DA761E0811102C084E601C088EC44DBA2
:1017C00098AD8CA99130A9F49BA9891710F48E5F6C
:1017D00014C08EA9873038F48C5F8EAB883038F017
:1017E00087E08EAB04C08DA98F5F8DAB1EAA18AEAB
:1017F00016C09AA9981718F482508CAB10C08EA905
:10180000873038F48C5F8EAB883038F087E08EAB51
:1018100004C08DA98F5F8DAB1EAA81E088AF1EA684
:1018200083E087B9369A3699FECF64B185B170E00E
:10183000782B072E000C880B990B22E730E040E054
:1018400050E09DD1B901CA012FEF33E040E050E0F4
:101850007AD12CAF85D9892BE9F5F9ADF230D1F5E4
:101860002FC061E080E5F0DA61E084E6EDDA2AADD0
:101870002F5F2AAF2E3170F13FEF6BE47DE13150E5
:1018800060407040E1F700C000002DA989A990E0F8
:101890000196820F911D079709F49DCB6FEF73EDB1
:1018A00080E3615070408040E1F700C0000080910B
:1018B000AB00882309F48FCB81508093AB001BCC05
:1018C00064E088ECC1DA86E08AA7809160008A5FD4
:1018D0008BA719AE8AA58F3F09F010CC89AD823055
:1018E00009F40CCC8F5F89AF09CCBEA8DB01BB2704
:1018F000B11030C0812F90E066E070E011D3860D0A
:10190000971DA80FB91F14969C91983044F48DA58B
:101910009F3F09F484CD6EE0FAD2282F01C020E069
:10192000802F8A19E82FF0E0EE30F10514F08E5088
:10193000F9CF892F990F990B6EE070E0F1D28E0FDD
:101940009F1FFC01E20FF11D27FDFA95E759FA4FA1
:10195000149166CD111130C085E090E08C0F9D1F71
:10196000A80FB91F9C91983044F48DA59F3F09F4AE
:1019700057CD6EE0CCD2282F01C020E0802F8A19ED
:10198000E82FF0E0EE30F10514F08E50F9CF892FFA
:10199000990F990B6EE070E0C3D28E0F9F1FFC0170
:1019A000E20FF11D27FDFA95E759FA4F149101C096
:1019B000110FBA94EAF734CD812E912CC40101970E
:1019C00066E070E0ADD2860D971DFC01EA0FFB1FAB
:1019D000948198303CF48DA59F3F51F16EE097D2F1
:1019E000282F01C020E0802F8A19E82FF0E0EE3088
:1019F000F10514F08E50F9CF892F990F990B6EE0F5
:101A000070E08ED28E0F9F1FFC01E20FF11D27FDAB
:101A1000FA95E759FA4FE4912E2F30E088E090E0F4
:101A20008B19910902C0359527958A95E2F701C077
:101A300020E0C40166E070E073D28E0D9F1DA80FF8
:101A4000B91F14969C9198303CF48DA59F3F19F1D5
:101A50006EE05DD2382F01C030E0802F8A19E82F68
:101A6000F0E0EE30F10514F08E50F9CF892F990F88
:101A7000990B6EE070E054D28E0F9F1FFC01E30FB4
:101A8000F11D37FDFA95E759FA4F149101C0110F76
:101A9000BA94EAF701C010E0122BC2CC66300CF009
:101AA0007ACD212C54CDA0E0B0E0E8E5FDE08AC07D
:101AB000EC01688179818A819B81611571058105BD
:101AC000910521F464E279ED8BE597E02DE133EFA8
:101AD00041E050E038D049015A0127EA31E440E0C2
:101AE00050E04DD069017A01C501B4012CEE34EF0C
:101AF0004FEF5FEF44D0022F132F9A01D701C60199
:101B0000800F911FA21FB31FB7FF03C00197A10948
:101B1000B04888839983AA83BB83BC01CD019F779A
:101B2000CDB7DEB7ECE06AC0BEDF089581E690E095
:101B3000BADF089560936100709362008093630040
:101B4000909364000895052E97FB16F400940FD02F
:101B500057FD05D068D007FC02D046F408C0509568
:101B60004095309521953F4F4F4F5F4F0895909589
:101B70008095709561957F4F8F4F9F4F0895689422
:101B80000013E894A0E0B0E0E7ECFDE01DC0EFEF4B
:101B9000E7F959016A015E23550FEE08FE2C870113
:101BA0009B01AC019E23990F660B762FCB015DD074
:101BB000CDB7DEB7EAE024C02F923F924F925F92FA
:101BC0006F927F928F929F92AF92BF92CF92DF924D
:101BD000EF92FF920F931F93CF93DF93CDB7DEB7B2
:101BE000CA1BDB0B0FB6F894DEBF0FBECDBF099446
:101BF0002A88398848885F846E847D848C849B849D
:101C0000AA84B984C884DF80EE80FD800C811B81AA
:101C1000AA81B981CE0FD11D0FB6F894DEBF0FBED9
:101C2000CDBFED010895A1E21A2EAA1BBB1BFD0139
:101C30000DC0AA1FBB1FEE1FFF1FA217B307E407AB
:101C4000F50720F0A21BB30BE40BF50B661F771F03
:101C5000881F991F1A9469F76095709580959095E3
:101C60009B01AC01BD01CF010895DF93CF939F92FB
:101C7000A0E49A2E0024D001E001F001169507950A
:101C8000F794E794D794C794B794A79448F410684E
:101C9000A20FB31FC41FD51FE61FF71F081E191E72
:101CA000220F331F441F551F661F771F881F991F60
:101CB0009A9421F79D01AE01BF01C00111249F90AC
:101CC000CF91DF9108955058BB27AA270ED0E5C0C9
:101CD000D6D030F0DBD020F031F49F3F11F41EF469
:101CE000CBC00EF4E095E7FBC1C0E92FE7D080F34D
:101CF000BA17620773078407950718F071F49EF509
:101D0000FFC00EF4E0950B2EBA2FA02D0B01B901E8
:101D100090010C01CA01A0011124FF27591B99F061
:101D2000593F50F4503E68F11A16F040A22F232F6D
:101D3000342F4427585FF3CF469537952795A795BD
:101D4000F0405395C9F77EF41F16BA0B620B730B64
:101D5000840BBAF09150A1F0FF0FBB1F661F771FD5
:101D6000881FC2F70EC0BA0F621F731F841F48F48A
:101D7000879577956795B795F7959E3F08F0B3CF10
:101D80009395880F08F09927EE0F979587950895FA
:101D900004D06894B111B5C0089598D088F09F57C9
:101DA00090F0B92F9927B751A0F0D1F0660F771FA7
:101DB000881F991F1AF0BA95C9F712C0B13081F087
:101DC0009FD0B1E008959CC0672F782F8827B85F17
:101DD00039F0B93FCCF3869577956795B395D9F7E8
:101DE0003EF490958095709561957F4F8F4F9F4FF2
:101DF0000895E89409C097FB3EF4909580957095FE
:101E000061957F4F8F4F9F4F9923A9F0F92F96E946
:101E1000BB279395F695879577956795B795F111BB
:101E2000F8CFFAF4BB0F11F460FF1BC06F5F7F4F58
:101E30008F4F9F4F16C0882311F096E911C077236A
:101E400021F09EE8872F762F05C0662371F096E873
:101E5000862F70E060E02AF09A95660F771F881F42
:101E6000DAF7880F9695879597F9089597F99F6700
:101E700080E870E060E008959FEF80EC0895002412
:101E80000A941616170618060906089500240A94DF
:101E900012161306140605060895092E0394000C65
:101EA00011F4882352F0BB0F40F4BF2B11F460FFF4
:101EB00004C06F5F7F4F8F4F9F4F089557FD90581D
:101EC000440F551F59F05F3F71F04795880F97FBFE
:101ED000991F61F09F3F79F08795089512161306B8
:101EE0001406551FF2CF4695F1DF08C016161706E7
:101EF0001806991FF1CF869571056105089408951C
:101F0000E894BB2766277727CB0197F9089500242B
:101F100080FD060E660F11F08695D1F7802D08958D
:101F20000024552704C0080E591F880F991F0097D9
:101F300029F076956795B8F37105B9F7802D952F3F
:101F40000895991B79E004C0991F961708F0961B15
:101F5000881F7A95C9F78095089597FB072E16F488
:101F6000009406D077FD08D00BD007FC05D03EF4D6
:101F7000909581959F4F0895709561957F4F089535
:101F8000AA1BBB1B51E107C0AA1FBB1FA617B7079F
:101F900010F0A61BB70B881F991F5A95A9F78095BB
:0C1FA0009095BC01CD010895F894FFCF8E
:101FAC00400100000088001010000000000000023A
:101FBC0002020202020404040404040404040404DF
:101FCC0004FFFFFFFFFFFFFFFFFFFFFFFF34FF00DA
:101FDC00000000000003002C0000000801804020DD
:061FEC00100804020100D0
:00000001FF
